{
  "contractName": "MELD",
  "abi": [
    {
      "anonymous": false,
      "inputs": [
        {
          "indexed": false,
          "internalType": "address",
          "name": "previousAdmin",
          "type": "address"
        },
        {
          "indexed": false,
          "internalType": "address",
          "name": "newAdmin",
          "type": "address"
        }
      ],
      "name": "AdminChanged",
      "type": "event"
    },
    {
      "anonymous": false,
      "inputs": [
        {
          "indexed": true,
          "internalType": "address",
          "name": "owner",
          "type": "address"
        },
        {
          "indexed": true,
          "internalType": "address",
          "name": "spender",
          "type": "address"
        },
        {
          "indexed": false,
          "internalType": "uint256",
          "name": "value",
          "type": "uint256"
        }
      ],
      "name": "Approval",
      "type": "event"
    },
    {
      "anonymous": false,
      "inputs": [
        {
          "indexed": true,
          "internalType": "address",
          "name": "beacon",
          "type": "address"
        }
      ],
      "name": "BeaconUpgraded",
      "type": "event"
    },
    {
      "anonymous": false,
      "inputs": [
        {
          "indexed": true,
          "internalType": "address",
          "name": "previousOwner",
          "type": "address"
        },
        {
          "indexed": true,
          "internalType": "address",
          "name": "newOwner",
          "type": "address"
        }
      ],
      "name": "OwnershipTransferred",
      "type": "event"
    },
    {
      "anonymous": false,
      "inputs": [
        {
          "indexed": false,
          "internalType": "address",
          "name": "account",
          "type": "address"
        }
      ],
      "name": "Paused",
      "type": "event"
    },
    {
      "anonymous": false,
      "inputs": [
        {
          "indexed": true,
          "internalType": "address",
          "name": "from",
          "type": "address"
        },
        {
          "indexed": true,
          "internalType": "address",
          "name": "to",
          "type": "address"
        },
        {
          "indexed": false,
          "internalType": "uint256",
          "name": "value",
          "type": "uint256"
        }
      ],
      "name": "Transfer",
      "type": "event"
    },
    {
      "anonymous": false,
      "inputs": [
        {
          "indexed": false,
          "internalType": "address",
          "name": "account",
          "type": "address"
        }
      ],
      "name": "Unpaused",
      "type": "event"
    },
    {
      "anonymous": false,
      "inputs": [
        {
          "indexed": true,
          "internalType": "address",
          "name": "implementation",
          "type": "address"
        }
      ],
      "name": "Upgraded",
      "type": "event"
    },
    {
      "inputs": [
        {
          "internalType": "address",
          "name": "owner",
          "type": "address"
        },
        {
          "internalType": "address",
          "name": "spender",
          "type": "address"
        }
      ],
      "name": "allowance",
      "outputs": [
        {
          "internalType": "uint256",
          "name": "",
          "type": "uint256"
        }
      ],
      "stateMutability": "view",
      "type": "function",
      "constant": true
    },
    {
      "inputs": [
        {
          "internalType": "address",
          "name": "spender",
          "type": "address"
        },
        {
          "internalType": "uint256",
          "name": "amount",
          "type": "uint256"
        }
      ],
      "name": "approve",
      "outputs": [
        {
          "internalType": "bool",
          "name": "",
          "type": "bool"
        }
      ],
      "stateMutability": "nonpayable",
      "type": "function"
    },
    {
      "inputs": [
        {
          "internalType": "address",
          "name": "account",
          "type": "address"
        }
      ],
      "name": "balanceOf",
      "outputs": [
        {
          "internalType": "uint256",
          "name": "",
          "type": "uint256"
        }
      ],
      "stateMutability": "view",
      "type": "function",
      "constant": true
    },
    {
      "inputs": [],
      "name": "decimals",
      "outputs": [
        {
          "internalType": "uint8",
          "name": "",
          "type": "uint8"
        }
      ],
      "stateMutability": "view",
      "type": "function",
      "constant": true
    },
    {
      "inputs": [
        {
          "internalType": "address",
          "name": "spender",
          "type": "address"
        },
        {
          "internalType": "uint256",
          "name": "subtractedValue",
          "type": "uint256"
        }
      ],
      "name": "decreaseAllowance",
      "outputs": [
        {
          "internalType": "bool",
          "name": "",
          "type": "bool"
        }
      ],
      "stateMutability": "nonpayable",
      "type": "function"
    },
    {
      "inputs": [
        {
          "internalType": "address",
          "name": "spender",
          "type": "address"
        },
        {
          "internalType": "uint256",
          "name": "addedValue",
          "type": "uint256"
        }
      ],
      "name": "increaseAllowance",
      "outputs": [
        {
          "internalType": "bool",
          "name": "",
          "type": "bool"
        }
      ],
      "stateMutability": "nonpayable",
      "type": "function"
    },
    {
      "inputs": [],
      "name": "name",
      "outputs": [
        {
          "internalType": "string",
          "name": "",
          "type": "string"
        }
      ],
      "stateMutability": "view",
      "type": "function",
      "constant": true
    },
    {
      "inputs": [],
      "name": "owner",
      "outputs": [
        {
          "internalType": "address",
          "name": "",
          "type": "address"
        }
      ],
      "stateMutability": "view",
      "type": "function",
      "constant": true
    },
    {
      "inputs": [],
      "name": "paused",
      "outputs": [
        {
          "internalType": "bool",
          "name": "",
          "type": "bool"
        }
      ],
      "stateMutability": "view",
      "type": "function",
      "constant": true
    },
    {
      "inputs": [],
      "name": "renounceOwnership",
      "outputs": [],
      "stateMutability": "nonpayable",
      "type": "function"
    },
    {
      "inputs": [],
      "name": "symbol",
      "outputs": [
        {
          "internalType": "string",
          "name": "",
          "type": "string"
        }
      ],
      "stateMutability": "view",
      "type": "function",
      "constant": true
    },
    {
      "inputs": [],
      "name": "totalSupply",
      "outputs": [
        {
          "internalType": "uint256",
          "name": "",
          "type": "uint256"
        }
      ],
      "stateMutability": "view",
      "type": "function",
      "constant": true
    },
    {
      "inputs": [
        {
          "internalType": "address",
          "name": "recipient",
          "type": "address"
        },
        {
          "internalType": "uint256",
          "name": "amount",
          "type": "uint256"
        }
      ],
      "name": "transfer",
      "outputs": [
        {
          "internalType": "bool",
          "name": "",
          "type": "bool"
        }
      ],
      "stateMutability": "nonpayable",
      "type": "function"
    },
    {
      "inputs": [
        {
          "internalType": "address",
          "name": "sender",
          "type": "address"
        },
        {
          "internalType": "address",
          "name": "recipient",
          "type": "address"
        },
        {
          "internalType": "uint256",
          "name": "amount",
          "type": "uint256"
        }
      ],
      "name": "transferFrom",
      "outputs": [
        {
          "internalType": "bool",
          "name": "",
          "type": "bool"
        }
      ],
      "stateMutability": "nonpayable",
      "type": "function"
    },
    {
      "inputs": [
        {
          "internalType": "address",
          "name": "newOwner",
          "type": "address"
        }
      ],
      "name": "transferOwnership",
      "outputs": [],
      "stateMutability": "nonpayable",
      "type": "function"
    },
    {
      "inputs": [
        {
          "internalType": "address",
          "name": "newImplementation",
          "type": "address"
        }
      ],
      "name": "upgradeTo",
      "outputs": [],
      "stateMutability": "nonpayable",
      "type": "function"
    },
    {
      "inputs": [
        {
          "internalType": "address",
          "name": "newImplementation",
          "type": "address"
        },
        {
          "internalType": "bytes",
          "name": "data",
          "type": "bytes"
        }
      ],
      "name": "upgradeToAndCall",
      "outputs": [],
      "stateMutability": "payable",
      "type": "function",
      "payable": true
    },
    {
      "inputs": [],
      "name": "initialize",
      "outputs": [],
      "stateMutability": "nonpayable",
      "type": "function"
    },
    {
      "inputs": [],
      "name": "pause",
      "outputs": [],
      "stateMutability": "nonpayable",
      "type": "function"
    },
    {
      "inputs": [],
      "name": "unpause",
      "outputs": [],
      "stateMutability": "nonpayable",
      "type": "function"
    }
  ],
  "bytecode": "0x608060405234801561001057600080fd5b506135c3806100206000396000f3fe60806040526004361061011f5760003560e01c806370a08231116100a057806395d89b411161006457806395d89b4114610390578063a457c2d7146103bb578063a9059cbb146103f8578063dd62ed3e14610435578063f2fde38b146104725761011f565b806370a08231146102e3578063715018a6146103205780638129fc1c146103375780638456cb591461034e5780638da5cb5b146103655761011f565b80633659cfe6116100e75780633659cfe61461021f57806339509351146102485780633f4ba83a146102855780634f1ef2861461029c5780635c975abb146102b85761011f565b806306fdde0314610124578063095ea7b31461014f57806318160ddd1461018c57806323b872dd146101b7578063313ce567146101f4575b600080fd5b34801561013057600080fd5b5061013961049b565b6040516101469190612a26565b60405180910390f35b34801561015b57600080fd5b50610176600480360381019061017191906126c3565b61052d565b6040516101839190612a0b565b60405180910390f35b34801561019857600080fd5b506101a161054b565b6040516101ae9190612c48565b60405180910390f35b3480156101c357600080fd5b506101de60048036038101906101d99190612614565b610555565b6040516101eb9190612a0b565b60405180910390f35b34801561020057600080fd5b5061020961064d565b6040516102169190612c63565b60405180910390f35b34801561022b57600080fd5b50610246600480360381019061024191906125a7565b610656565b005b34801561025457600080fd5b5061026f600480360381019061026a91906126c3565b61067d565b60405161027c9190612a0b565b60405180910390f35b34801561029157600080fd5b5061029a610729565b005b6102b660048036038101906102b19190612667565b6107af565b005b3480156102c457600080fd5b506102cd6107c8565b6040516102da9190612a0b565b60405180910390f35b3480156102ef57600080fd5b5061030a600480360381019061030591906125a7565b6107df565b6040516103179190612c48565b60405180910390f35b34801561032c57600080fd5b50610335610828565b005b34801561034357600080fd5b5061034c6108b0565b005b34801561035a57600080fd5b50610363610a41565b005b34801561037157600080fd5b5061037a610ac7565b60405161038791906129f0565b60405180910390f35b34801561039c57600080fd5b506103a5610af1565b6040516103b29190612a26565b60405180910390f35b3480156103c757600080fd5b506103e260048036038101906103dd91906126c3565b610b83565b6040516103ef9190612a0b565b60405180910390f35b34801561040457600080fd5b5061041f600480360381019061041a91906126c3565b610c6e565b60405161042c9190612a0b565b60405180910390f35b34801561044157600080fd5b5061045c600480360381019061045791906125d4565b610c8c565b6040516104699190612c48565b60405180910390f35b34801561047e57600080fd5b50610499600480360381019061049491906125a7565b610d13565b005b6060603680546104aa90612fbe565b80601f01602080910402602001604051908101604052809291908181526020018280546104d690612fbe565b80156105235780601f106104f857610100808354040283529160200191610523565b820191906000526020600020905b81548152906001019060200180831161050657829003601f168201915b5050505050905090565b600061054161053a610e0b565b8484610e13565b6001905092915050565b6000603554905090565b6000610562848484610fde565b6000603460008673ffffffffffffffffffffffffffffffffffffffff1673ffffffffffffffffffffffffffffffffffffffff16815260200190815260200160002060006105ad610e0b565b73ffffffffffffffffffffffffffffffffffffffff1673ffffffffffffffffffffffffffffffffffffffff1681526020019081526020016000205490508281101561062d576040517f08c379a000000000000000000000000000000000000000000000000000000000815260040161062490612b68565b60405180910390fd5b61064185610639610e0b565b858403610e13565b60019150509392505050565b60006012905090565b61065f81611262565b61067a816040518060200160405280600081525060006112e1565b50565b600061071f61068a610e0b565b848460346000610698610e0b565b73ffffffffffffffffffffffffffffffffffffffff1673ffffffffffffffffffffffffffffffffffffffff16815260200190815260200160002060008873ffffffffffffffffffffffffffffffffffffffff1673ffffffffffffffffffffffffffffffffffffffff1681526020019081526020016000205461071a9190612d06565b610e13565b6001905092915050565b610731610e0b565b73ffffffffffffffffffffffffffffffffffffffff1661074f610ac7565b73ffffffffffffffffffffffffffffffffffffffff16146107a5576040517f08c379a000000000000000000000000000000000000000000000000000000000815260040161079c90612b88565b60405180910390fd5b6107ad6114b2565b565b6107b882611262565b6107c4828260016112e1565b5050565b6000606560009054906101000a900460ff16905090565b6000603360008373ffffffffffffffffffffffffffffffffffffffff1673ffffffffffffffffffffffffffffffffffffffff168152602001908152602001600020549050919050565b610830610e0b565b73ffffffffffffffffffffffffffffffffffffffff1661084e610ac7565b73ffffffffffffffffffffffffffffffffffffffff16146108a4576040517f08c379a000000000000000000000000000000000000000000000000000000000815260040161089b90612b88565b60405180910390fd5b6108ae6000611554565b565b600060019054906101000a900460ff16806108d6575060008054906101000a900460ff16155b610915576040517f08c379a000000000000000000000000000000000000000000000000000000000815260040161090c90612b28565b60405180910390fd5b60008060019054906101000a900460ff161590508015610965576001600060016101000a81548160ff02191690831515021790555060016000806101000a81548160ff0219169083151502179055505b6109d96040518060400160405280600481526020017f4d454c44000000000000000000000000000000000000000000000000000000008152506040518060400160405280600481526020017f4d454c440000000000000000000000000000000000000000000000000000000081525061161a565b6109e1611707565b6109e96117f0565b6109f16118d9565b610a1d336109fd61064d565b600a610a099190612daf565b6305f5e100610a189190612ecd565b6119c2565b8015610a3e5760008060016101000a81548160ff0219169083151502179055505b50565b610a49610e0b565b73ffffffffffffffffffffffffffffffffffffffff16610a67610ac7565b73ffffffffffffffffffffffffffffffffffffffff1614610abd576040517f08c379a0000000000000000000000000000000000000000000000000000000008152600401610ab490612b88565b60405180910390fd5b610ac5611b23565b565b6000609760009054906101000a900473ffffffffffffffffffffffffffffffffffffffff16905090565b606060378054610b0090612fbe565b80601f0160208091040260200160405190810160405280929190818152602001828054610b2c90612fbe565b8015610b795780601f10610b4e57610100808354040283529160200191610b79565b820191906000526020600020905b815481529060010190602001808311610b5c57829003601f168201915b5050505050905090565b60008060346000610b92610e0b565b73ffffffffffffffffffffffffffffffffffffffff1673ffffffffffffffffffffffffffffffffffffffff16815260200190815260200160002060008573ffffffffffffffffffffffffffffffffffffffff1673ffffffffffffffffffffffffffffffffffffffff16815260200190815260200160002054905082811015610c4f576040517f08c379a0000000000000000000000000000000000000000000000000000000008152600401610c4690612c08565b60405180910390fd5b610c63610c5a610e0b565b85858403610e13565b600191505092915050565b6000610c82610c7b610e0b565b8484610fde565b6001905092915050565b6000603460008473ffffffffffffffffffffffffffffffffffffffff1673ffffffffffffffffffffffffffffffffffffffff16815260200190815260200160002060008373ffffffffffffffffffffffffffffffffffffffff1673ffffffffffffffffffffffffffffffffffffffff16815260200190815260200160002054905092915050565b610d1b610e0b565b73ffffffffffffffffffffffffffffffffffffffff16610d39610ac7565b73ffffffffffffffffffffffffffffffffffffffff1614610d8f576040517f08c379a0000000000000000000000000000000000000000000000000000000008152600401610d8690612b88565b60405180910390fd5b600073ffffffffffffffffffffffffffffffffffffffff168173ffffffffffffffffffffffffffffffffffffffff161415610dff576040517f08c379a0000000000000000000000000000000000000000000000000000000008152600401610df690612aa8565b60405180910390fd5b610e0881611554565b50565b600033905090565b600073ffffffffffffffffffffffffffffffffffffffff168373ffffffffffffffffffffffffffffffffffffffff161415610e83576040517f08c379a0000000000000000000000000000000000000000000000000000000008152600401610e7a90612be8565b60405180910390fd5b600073ffffffffffffffffffffffffffffffffffffffff168273ffffffffffffffffffffffffffffffffffffffff161415610ef3576040517f08c379a0000000000000000000000000000000000000000000000000000000008152600401610eea90612ac8565b60405180910390fd5b80603460008573ffffffffffffffffffffffffffffffffffffffff1673ffffffffffffffffffffffffffffffffffffffff16815260200190815260200160002060008473ffffffffffffffffffffffffffffffffffffffff1673ffffffffffffffffffffffffffffffffffffffff168152602001908152602001600020819055508173ffffffffffffffffffffffffffffffffffffffff168373ffffffffffffffffffffffffffffffffffffffff167f8c5be1e5ebec7d5bd14f71427d1e84f3dd0314c0f7b2291e5b200ac8c7c3b92583604051610fd19190612c48565b60405180910390a3505050565b600073ffffffffffffffffffffffffffffffffffffffff168373ffffffffffffffffffffffffffffffffffffffff16141561104e576040517f08c379a000000000000000000000000000000000000000000000000000000000815260040161104590612bc8565b60405180910390fd5b600073ffffffffffffffffffffffffffffffffffffffff168273ffffffffffffffffffffffffffffffffffffffff1614156110be576040517f08c379a00000000000000000000000000000000000000000000000000000000081526004016110b590612a48565b60405180910390fd5b6110c9838383611bc6565b6000603360008573ffffffffffffffffffffffffffffffffffffffff1673ffffffffffffffffffffffffffffffffffffffff16815260200190815260200160002054905081811015611150576040517f08c379a000000000000000000000000000000000000000000000000000000000815260040161114790612ae8565b60405180910390fd5b818103603360008673ffffffffffffffffffffffffffffffffffffffff1673ffffffffffffffffffffffffffffffffffffffff1681526020019081526020016000208190555081603360008573ffffffffffffffffffffffffffffffffffffffff1673ffffffffffffffffffffffffffffffffffffffff16815260200190815260200160002060008282546111e59190612d06565b925050819055508273ffffffffffffffffffffffffffffffffffffffff168473ffffffffffffffffffffffffffffffffffffffff167fddf252ad1be2c89b69c2b068fc378daa952ba7f163c4a11628f55a4df523b3ef846040516112499190612c48565b60405180910390a361125c848484611c1e565b50505050565b61126a610e0b565b73ffffffffffffffffffffffffffffffffffffffff16611288610ac7565b73ffffffffffffffffffffffffffffffffffffffff16146112de576040517f08c379a00000000000000000000000000000000000000000000000000000000081526004016112d590612b88565b60405180910390fd5b50565b60006112eb611c23565b90506112f684611c7a565b6000835111806113035750815b15611314576113128484611d33565b505b60006113427f4910fdfa16fed3260ed0e7147f7cc6da11a60208b5b9406d12a635614ffd914360001b611e17565b90508060000160009054906101000a900460ff166114ab5760018160000160006101000a81548160ff02191690831515021790555061140e858360405160240161138c91906129f0565b6040516020818303038152906040527f3659cfe6000000000000000000000000000000000000000000000000000000007bffffffffffffffffffffffffffffffffffffffffffffffffffffffff19166020820180517bffffffffffffffffffffffffffffffffffffffffffffffffffffffff8381831617835250505050611d33565b5060008160000160006101000a81548160ff021916908315150217905550611434611c23565b73ffffffffffffffffffffffffffffffffffffffff168273ffffffffffffffffffffffffffffffffffffffff16146114a1576040517f08c379a000000000000000000000000000000000000000000000000000000000815260040161149890612a88565b60405180910390fd5b6114aa85611e21565b5b5050505050565b6114ba6107c8565b6114f9576040517f08c379a00000000000000000000000000000000000000000000000000000000081526004016114f090612a68565b60405180910390fd5b6000606560006101000a81548160ff0219169083151502179055507f5db9ee0a495bf2e6ff9c91a7834c1ba4fdd244a5e8aa4e537bd38aeae4b073aa61153d610e0b565b60405161154a91906129f0565b60405180910390a1565b6000609760009054906101000a900473ffffffffffffffffffffffffffffffffffffffff16905081609760006101000a81548173ffffffffffffffffffffffffffffffffffffffff021916908373ffffffffffffffffffffffffffffffffffffffff1602179055508173ffffffffffffffffffffffffffffffffffffffff168173ffffffffffffffffffffffffffffffffffffffff167f8be0079c531659141344cd1fd0a4f28419497f9722a3daafe3b4186f6b6457e060405160405180910390a35050565b600060019054906101000a900460ff1680611640575060008054906101000a900460ff16155b61167f576040517f08c379a000000000000000000000000000000000000000000000000000000000815260040161167690612b28565b60405180910390fd5b60008060019054906101000a900460ff1615905080156116cf576001600060016101000a81548160ff02191690831515021790555060016000806101000a81548160ff0219169083151502179055505b6116d7611e70565b6116e18383611f49565b80156117025760008060016101000a81548160ff0219169083151502179055505b505050565b600060019054906101000a900460ff168061172d575060008054906101000a900460ff16155b61176c576040517f08c379a000000000000000000000000000000000000000000000000000000000815260040161176390612b28565b60405180910390fd5b60008060019054906101000a900460ff1615905080156117bc576001600060016101000a81548160ff02191690831515021790555060016000806101000a81548160ff0219169083151502179055505b6117c4611e70565b6117cc612052565b80156117ed5760008060016101000a81548160ff0219169083151502179055505b50565b600060019054906101000a900460ff1680611816575060008054906101000a900460ff16155b611855576040517f08c379a000000000000000000000000000000000000000000000000000000000815260040161184c90612b28565b60405180910390fd5b60008060019054906101000a900460ff1615905080156118a5576001600060016101000a81548160ff02191690831515021790555060016000806101000a81548160ff0219169083151502179055505b6118ad611e70565b6118b5612146565b80156118d65760008060016101000a81548160ff0219169083151502179055505b50565b600060019054906101000a900460ff16806118ff575060008054906101000a900460ff16155b61193e576040517f08c379a000000000000000000000000000000000000000000000000000000000815260040161193590612b28565b60405180910390fd5b60008060019054906101000a900460ff16159050801561198e576001600060016101000a81548160ff02191690831515021790555060016000806101000a81548160ff0219169083151502179055505b61199661222f565b61199e612308565b80156119bf5760008060016101000a81548160ff0219169083151502179055505b50565b600073ffffffffffffffffffffffffffffffffffffffff168273ffffffffffffffffffffffffffffffffffffffff161415611a32576040517f08c379a0000000000000000000000000000000000000000000000000000000008152600401611a2990612c28565b60405180910390fd5b611a3e60008383611bc6565b8060356000828254611a509190612d06565b9250508190555080603360008473ffffffffffffffffffffffffffffffffffffffff1673ffffffffffffffffffffffffffffffffffffffff1681526020019081526020016000206000828254611aa69190612d06565b925050819055508173ffffffffffffffffffffffffffffffffffffffff16600073ffffffffffffffffffffffffffffffffffffffff167fddf252ad1be2c89b69c2b068fc378daa952ba7f163c4a11628f55a4df523b3ef83604051611b0b9190612c48565b60405180910390a3611b1f60008383611c1e565b5050565b611b2b6107c8565b15611b6b576040517f08c379a0000000000000000000000000000000000000000000000000000000008152600401611b6290612b08565b60405180910390fd5b6001606560006101000a81548160ff0219169083151502179055507f62e78cea01bee320cd4e420270b5ea74000d11b0c9f74754ebdbfc544b05a258611baf610e0b565b604051611bbc91906129f0565b60405180910390a1565b611bce6107c8565b15611c0e576040517f08c379a0000000000000000000000000000000000000000000000000000000008152600401611c0590612b08565b60405180910390fd5b611c198383836123e1565b505050565b505050565b6000611c517f360894a13ba1a3210667c828492db98dca3e2076cc3735a920a3ca505d382bbc60001b6123e6565b60000160009054906101000a900473ffffffffffffffffffffffffffffffffffffffff16905090565b611c83816123f0565b611cc2576040517f08c379a0000000000000000000000000000000000000000000000000000000008152600401611cb990612b48565b60405180910390fd5b80611cef7f360894a13ba1a3210667c828492db98dca3e2076cc3735a920a3ca505d382bbc60001b6123e6565b60000160006101000a81548173ffffffffffffffffffffffffffffffffffffffff021916908373ffffffffffffffffffffffffffffffffffffffff16021790555050565b6060611d3e836123f0565b611d7d576040517f08c379a0000000000000000000000000000000000000000000000000000000008152600401611d7490612ba8565b60405180910390fd5b6000808473ffffffffffffffffffffffffffffffffffffffff1684604051611da591906129d9565b600060405180830381855af49150503d8060008114611de0576040519150601f19603f3d011682016040523d82523d6000602084013e611de5565b606091505b5091509150611e0d828260405180606001604052806027815260200161356760279139612403565b9250505092915050565b6000819050919050565b611e2a81611c7a565b8073ffffffffffffffffffffffffffffffffffffffff167fbc7cd75a20ee27fd9adebab32041f755214dbc6bffa90cc0225b39da2e5c2d3b60405160405180910390a250565b600060019054906101000a900460ff1680611e96575060008054906101000a900460ff16155b611ed5576040517f08c379a0000000000000000000000000000000000000000000000000000000008152600401611ecc90612b28565b60405180910390fd5b60008060019054906101000a900460ff161590508015611f25576001600060016101000a81548160ff02191690831515021790555060016000806101000a81548160ff0219169083151502179055505b8015611f465760008060016101000a81548160ff0219169083151502179055505b50565b600060019054906101000a900460ff1680611f6f575060008054906101000a900460ff16155b611fae576040517f08c379a0000000000000000000000000000000000000000000000000000000008152600401611fa590612b28565b60405180910390fd5b60008060019054906101000a900460ff161590508015611ffe576001600060016101000a81548160ff02191690831515021790555060016000806101000a81548160ff0219169083151502179055505b826036908051906020019061201492919061246a565b50816037908051906020019061202b92919061246a565b50801561204d5760008060016101000a81548160ff0219169083151502179055505b505050565b600060019054906101000a900460ff1680612078575060008054906101000a900460ff16155b6120b7576040517f08c379a00000000000000000000000000000000000000000000000000000000081526004016120ae90612b28565b60405180910390fd5b60008060019054906101000a900460ff161590508015612107576001600060016101000a81548160ff02191690831515021790555060016000806101000a81548160ff0219169083151502179055505b6000606560006101000a81548160ff02191690831515021790555080156121435760008060016101000a81548160ff0219169083151502179055505b50565b600060019054906101000a900460ff168061216c575060008054906101000a900460ff16155b6121ab576040517f08c379a00000000000000000000000000000000000000000000000000000000081526004016121a290612b28565b60405180910390fd5b60008060019054906101000a900460ff1615905080156121fb576001600060016101000a81548160ff02191690831515021790555060016000806101000a81548160ff0219169083151502179055505b61220b612206610e0b565b611554565b801561222c5760008060016101000a81548160ff0219169083151502179055505b50565b600060019054906101000a900460ff1680612255575060008054906101000a900460ff16155b612294576040517f08c379a000000000000000000000000000000000000000000000000000000000815260040161228b90612b28565b60405180910390fd5b60008060019054906101000a900460ff1615905080156122e4576001600060016101000a81548160ff02191690831515021790555060016000806101000a81548160ff0219169083151502179055505b80156123055760008060016101000a81548160ff0219169083151502179055505b50565b600060019054906101000a900460ff168061232e575060008054906101000a900460ff16155b61236d576040517f08c379a000000000000000000000000000000000000000000000000000000000815260040161236490612b28565b60405180910390fd5b60008060019054906101000a900460ff1615905080156123bd576001600060016101000a81548160ff02191690831515021790555060016000806101000a81548160ff0219169083151502179055505b80156123de5760008060016101000a81548160ff0219169083151502179055505b50565b505050565b6000819050919050565b600080823b905060008111915050919050565b6060831561241357829050612463565b6000835111156124265782518084602001fd5b816040517f08c379a000000000000000000000000000000000000000000000000000000000815260040161245a9190612a26565b60405180910390fd5b9392505050565b82805461247690612fbe565b90600052602060002090601f01602090048101928261249857600085556124df565b82601f106124b157805160ff19168380011785556124df565b828001600101855582156124df579182015b828111156124de5782518255916020019190600101906124c3565b5b5090506124ec91906124f0565b5090565b5b808211156125095760008160009055506001016124f1565b5090565b600061252061251b84612ca3565b612c7e565b90508281526020810184848401111561253c5761253b6130b3565b5b612547848285612f7c565b509392505050565b60008135905061255e81613538565b92915050565b600082601f830112612579576125786130ae565b5b813561258984826020860161250d565b91505092915050565b6000813590506125a18161354f565b92915050565b6000602082840312156125bd576125bc6130bd565b5b60006125cb8482850161254f565b91505092915050565b600080604083850312156125eb576125ea6130bd565b5b60006125f98582860161254f565b925050602061260a8582860161254f565b9150509250929050565b60008060006060848603121561262d5761262c6130bd565b5b600061263b8682870161254f565b935050602061264c8682870161254f565b925050604061265d86828701612592565b9150509250925092565b6000806040838503121561267e5761267d6130bd565b5b600061268c8582860161254f565b925050602083013567ffffffffffffffff8111156126ad576126ac6130b8565b5b6126b985828601612564565b9150509250929050565b600080604083850312156126da576126d96130bd565b5b60006126e88582860161254f565b92505060206126f985828601612592565b9150509250929050565b61270c81612f27565b82525050565b61271b81612f39565b82525050565b600061272c82612cd4565b6127368185612cea565b9350612746818560208601612f8b565b80840191505092915050565b600061275d82612cdf565b6127678185612cf5565b9350612777818560208601612f8b565b612780816130c2565b840191505092915050565b6000612798602383612cf5565b91506127a3826130e0565b604082019050919050565b60006127bb601483612cf5565b91506127c68261312f565b602082019050919050565b60006127de602f83612cf5565b91506127e982613158565b604082019050919050565b6000612801602683612cf5565b915061280c826131a7565b604082019050919050565b6000612824602283612cf5565b915061282f826131f6565b604082019050919050565b6000612847602683612cf5565b915061285282613245565b604082019050919050565b600061286a601083612cf5565b915061287582613294565b602082019050919050565b600061288d602e83612cf5565b9150612898826132bd565b604082019050919050565b60006128b0602d83612cf5565b91506128bb8261330c565b604082019050919050565b60006128d3602883612cf5565b91506128de8261335b565b604082019050919050565b60006128f6602083612cf5565b9150612901826133aa565b602082019050919050565b6000612919602683612cf5565b9150612924826133d3565b604082019050919050565b600061293c602583612cf5565b915061294782613422565b604082019050919050565b600061295f602483612cf5565b915061296a82613471565b604082019050919050565b6000612982602583612cf5565b915061298d826134c0565b604082019050919050565b60006129a5601f83612cf5565b91506129b08261350f565b602082019050919050565b6129c481612f65565b82525050565b6129d381612f6f565b82525050565b60006129e58284612721565b915081905092915050565b6000602082019050612a056000830184612703565b92915050565b6000602082019050612a206000830184612712565b92915050565b60006020820190508181036000830152612a408184612752565b905092915050565b60006020820190508181036000830152612a618161278b565b9050919050565b60006020820190508181036000830152612a81816127ae565b9050919050565b60006020820190508181036000830152612aa1816127d1565b9050919050565b60006020820190508181036000830152612ac1816127f4565b9050919050565b60006020820190508181036000830152612ae181612817565b9050919050565b60006020820190508181036000830152612b018161283a565b9050919050565b60006020820190508181036000830152612b218161285d565b9050919050565b60006020820190508181036000830152612b4181612880565b9050919050565b60006020820190508181036000830152612b61816128a3565b9050919050565b60006020820190508181036000830152612b81816128c6565b9050919050565b60006020820190508181036000830152612ba1816128e9565b9050919050565b60006020820190508181036000830152612bc18161290c565b9050919050565b60006020820190508181036000830152612be18161292f565b9050919050565b60006020820190508181036000830152612c0181612952565b9050919050565b60006020820190508181036000830152612c2181612975565b9050919050565b60006020820190508181036000830152612c4181612998565b9050919050565b6000602082019050612c5d60008301846129bb565b92915050565b6000602082019050612c7860008301846129ca565b92915050565b6000612c88612c99565b9050612c948282612ff0565b919050565b6000604051905090565b600067ffffffffffffffff821115612cbe57612cbd61307f565b5b612cc7826130c2565b9050602081019050919050565b600081519050919050565b600081519050919050565b600081905092915050565b600082825260208201905092915050565b6000612d1182612f65565b9150612d1c83612f65565b9250827fffffffffffffffffffffffffffffffffffffffffffffffffffffffffffffffff03821115612d5157612d50613021565b5b828201905092915050565b6000808291508390505b6001851115612da657808604811115612d8257612d81613021565b5b6001851615612d915780820291505b8081029050612d9f856130d3565b9450612d66565b94509492505050565b6000612dba82612f65565b9150612dc583612f6f565b9250612df27fffffffffffffffffffffffffffffffffffffffffffffffffffffffffffffffff8484612dfa565b905092915050565b600082612e0a5760019050612ec6565b81612e185760009050612ec6565b8160018114612e2e5760028114612e3857612e67565b6001915050612ec6565b60ff841115612e4a57612e49613021565b5b8360020a915084821115612e6157612e60613021565b5b50612ec6565b5060208310610133831016604e8410600b8410161715612e9c5782820a905083811115612e9757612e96613021565b5b612ec6565b612ea98484846001612d5c565b92509050818404811115612ec057612ebf613021565b5b81810290505b9392505050565b6000612ed882612f65565b9150612ee383612f65565b9250817fffffffffffffffffffffffffffffffffffffffffffffffffffffffffffffffff0483118215151615612f1c57612f1b613021565b5b828202905092915050565b6000612f3282612f45565b9050919050565b60008115159050919050565b600073ffffffffffffffffffffffffffffffffffffffff82169050919050565b6000819050919050565b600060ff82169050919050565b82818337600083830152505050565b60005b83811015612fa9578082015181840152602081019050612f8e565b83811115612fb8576000848401525b50505050565b60006002820490506001821680612fd657607f821691505b60208210811415612fea57612fe9613050565b5b50919050565b612ff9826130c2565b810181811067ffffffffffffffff821117156130185761301761307f565b5b80604052505050565b7f4e487b7100000000000000000000000000000000000000000000000000000000600052601160045260246000fd5b7f4e487b7100000000000000000000000000000000000000000000000000000000600052602260045260246000fd5b7f4e487b7100000000000000000000000000000000000000000000000000000000600052604160045260246000fd5b600080fd5b600080fd5b600080fd5b600080fd5b6000601f19601f8301169050919050565b60008160011c9050919050565b7f45524332303a207472616e7366657220746f20746865207a65726f206164647260008201527f6573730000000000000000000000000000000000000000000000000000000000602082015250565b7f5061757361626c653a206e6f7420706175736564000000000000000000000000600082015250565b7f45524331393637557067726164653a207570677261646520627265616b73206660008201527f7572746865722075706772616465730000000000000000000000000000000000602082015250565b7f4f776e61626c653a206e6577206f776e657220697320746865207a65726f206160008201527f6464726573730000000000000000000000000000000000000000000000000000602082015250565b7f45524332303a20617070726f766520746f20746865207a65726f20616464726560008201527f7373000000000000000000000000000000000000000000000000000000000000602082015250565b7f45524332303a207472616e7366657220616d6f756e742065786365656473206260008201527f616c616e63650000000000000000000000000000000000000000000000000000602082015250565b7f5061757361626c653a2070617573656400000000000000000000000000000000600082015250565b7f496e697469616c697a61626c653a20636f6e747261637420697320616c72656160008201527f647920696e697469616c697a6564000000000000000000000000000000000000602082015250565b7f455243313936373a206e657720696d706c656d656e746174696f6e206973206e60008201527f6f74206120636f6e747261637400000000000000000000000000000000000000602082015250565b7f45524332303a207472616e7366657220616d6f756e742065786365656473206160008201527f6c6c6f77616e6365000000000000000000000000000000000000000000000000602082015250565b7f4f776e61626c653a2063616c6c6572206973206e6f7420746865206f776e6572600082015250565b7f416464726573733a2064656c65676174652063616c6c20746f206e6f6e2d636f60008201527f6e74726163740000000000000000000000000000000000000000000000000000602082015250565b7f45524332303a207472616e736665722066726f6d20746865207a65726f20616460008201527f6472657373000000000000000000000000000000000000000000000000000000602082015250565b7f45524332303a20617070726f76652066726f6d20746865207a65726f2061646460008201527f7265737300000000000000000000000000000000000000000000000000000000602082015250565b7f45524332303a2064656372656173656420616c6c6f77616e63652062656c6f7760008201527f207a65726f000000000000000000000000000000000000000000000000000000602082015250565b7f45524332303a206d696e7420746f20746865207a65726f206164647265737300600082015250565b61354181612f27565b811461354c57600080fd5b50565b61355881612f65565b811461356357600080fd5b5056fe416464726573733a206c6f772d6c6576656c2064656c65676174652063616c6c206661696c6564a264697066735822122064fddfbf6b97e153b68e4e2e3340718a8a3af9a6a6abec6bfbfc086caf589fd564736f6c63430008070033",
  "immutableReferences": {},
  "source": "// SPDX-License-Identifier: MIT\npragma solidity ^0.8.2;\n\nimport \"@openzeppelin/contracts-upgradeable/token/ERC20/ERC20Upgradeable.sol\";\nimport \"@openzeppelin/contracts-upgradeable/security/PausableUpgradeable.sol\";\nimport \"@openzeppelin/contracts-upgradeable/access/OwnableUpgradeable.sol\";\nimport \"@openzeppelin/contracts-upgradeable/proxy/utils/Initializable.sol\";\nimport \"@openzeppelin/contracts-upgradeable/proxy/utils/UUPSUpgradeable.sol\";\n\ncontract MELD is Initializable, ERC20Upgradeable, PausableUpgradeable, OwnableUpgradeable, UUPSUpgradeable {\n    function initialize() initializer public {\n        __ERC20_init(\"MELD\", \"MELD\");\n        __Pausable_init();\n        __Ownable_init();\n        __UUPSUpgradeable_init();\n\n        _mint(msg.sender, 100000000 * 10 ** decimals());\n    }\n\n    function pause() public onlyOwner {\n        _pause();\n    }\n\n    function unpause() public onlyOwner {\n        _unpause();\n    }\n\n    function _beforeTokenTransfer(address from, address to, uint256 amount)\n        internal\n        whenNotPaused\n        override\n    {\n        super._beforeTokenTransfer(from, to, amount);\n    }\n\n    function _authorizeUpgrade(address newImplementation)\n        internal\n        onlyOwner\n        override\n    {}\n}",
  "sourcePath": "/Users/alberthuang/code/icw/MELD/contracts/MELD.sol",
  "compiler": {
    "name": "solc",
    "version": "0.8.7+commit.e28d00a7.Emscripten.clang"
  },
  "schemaVersion": "3.4.3",
  "updatedAt": "2021-08-28T09:44:28.418Z",
  "networkType": "ethereum",
  "devdoc": {
    "kind": "dev",
    "methods": {
      "allowance(address,address)": {
        "details": "See {IERC20-allowance}."
      },
      "approve(address,uint256)": {
        "details": "See {IERC20-approve}. Requirements: - `spender` cannot be the zero address."
      },
      "balanceOf(address)": {
        "details": "See {IERC20-balanceOf}."
      },
      "decimals()": {
        "details": "Returns the number of decimals used to get its user representation. For example, if `decimals` equals `2`, a balance of `505` tokens should be displayed to a user as `5.05` (`505 / 10 ** 2`). Tokens usually opt for a value of 18, imitating the relationship between Ether and Wei. This is the value {ERC20} uses, unless this function is overridden; NOTE: This information is only used for _display_ purposes: it in no way affects any of the arithmetic of the contract, including {IERC20-balanceOf} and {IERC20-transfer}."
      },
      "decreaseAllowance(address,uint256)": {
        "details": "Atomically decreases the allowance granted to `spender` by the caller. This is an alternative to {approve} that can be used as a mitigation for problems described in {IERC20-approve}. Emits an {Approval} event indicating the updated allowance. Requirements: - `spender` cannot be the zero address. - `spender` must have allowance for the caller of at least `subtractedValue`."
      },
      "increaseAllowance(address,uint256)": {
        "details": "Atomically increases the allowance granted to `spender` by the caller. This is an alternative to {approve} that can be used as a mitigation for problems described in {IERC20-approve}. Emits an {Approval} event indicating the updated allowance. Requirements: - `spender` cannot be the zero address."
      },
      "name()": {
        "details": "Returns the name of the token."
      },
      "owner()": {
        "details": "Returns the address of the current owner."
      },
      "paused()": {
        "details": "Returns true if the contract is paused, and false otherwise."
      },
      "renounceOwnership()": {
        "details": "Leaves the contract without owner. It will not be possible to call `onlyOwner` functions anymore. Can only be called by the current owner. NOTE: Renouncing ownership will leave the contract without an owner, thereby removing any functionality that is only available to the owner."
      },
      "symbol()": {
        "details": "Returns the symbol of the token, usually a shorter version of the name."
      },
      "totalSupply()": {
        "details": "See {IERC20-totalSupply}."
      },
      "transfer(address,uint256)": {
        "details": "See {IERC20-transfer}. Requirements: - `recipient` cannot be the zero address. - the caller must have a balance of at least `amount`."
      },
      "transferFrom(address,address,uint256)": {
        "details": "See {IERC20-transferFrom}. Emits an {Approval} event indicating the updated allowance. This is not required by the EIP. See the note at the beginning of {ERC20}. Requirements: - `sender` and `recipient` cannot be the zero address. - `sender` must have a balance of at least `amount`. - the caller must have allowance for ``sender``'s tokens of at least `amount`."
      },
      "transferOwnership(address)": {
        "details": "Transfers ownership of the contract to a new account (`newOwner`). Can only be called by the current owner."
      },
      "upgradeTo(address)": {
        "details": "Upgrade the implementation of the proxy to `newImplementation`. Calls {_authorizeUpgrade}. Emits an {Upgraded} event."
      },
      "upgradeToAndCall(address,bytes)": {
        "details": "Upgrade the implementation of the proxy to `newImplementation`, and subsequently execute the function call encoded in `data`. Calls {_authorizeUpgrade}. Emits an {Upgraded} event."
      }
    },
    "version": 1
  },
  "userdoc": {
    "kind": "user",
    "methods": {},
    "version": 1
  }
}